:040000002EEF00F0EF
:10000800D9CF37F0DACF38F0F2AA01D001D007D033
:10001800F2A401D001D003D0F29428EC13F09DA0F3
:1000280001D001D007D09EA001D001D003D09E906E
:10003800C8EC15F06E509DAA01D001D006D09EAA3A
:1000480001D001D002D092EC13F038C0DAFF37C0EB
:08005800D9FF110061EF11F066
:100F0000050F0305000049684A6A516A1BD901D0E0
:100F10003BD9412EFDD70F50421610504316435077
:100F200042106CE051500001700F13D906E21FD936
:100F3000700FD96EDA6ADF5003D012D9700F28D93A
:100F40002CD901D01BD9E82EFDD709504114456E8C
:100F50000A504214466E0B504314476E0C50441412
:100F6000486E485045104610471076E0EBD801D047
:100F70000BD9412EFDD7421C446E431C456E445094
:100F80000F16455010165150800FD96EDA6A515025
:100F9000900FE16EE26AE750416E51500A0D000E6B
:100FA000426E010E436EF3504226000E4322415022
:100FB0004226E86A41BEE868432242C0E1FF43C0DE
:100FC000E2FFDFCFE7FF5150900FD96EDA6ADF2AD8
:100FD0005150900FD96EDA6A090EDF643DD051503E
:100FE000900FD96EDA6ADF6AADD801D0CDD8412E24
:100FF000FDD742500D1243500E122ED05150000119
:10100000600FA7D806E2B3D8600FD96EDA6ADF5056
:1010100003D0A6D8600FBCD8C0D801D0AFD8E82E76
:10102000FDD709504114456E0A504214466E0B50CC
:101030004314476E0C504414486E485045104610F7
:1010400047100AE07FD801D09FD8412EFDD74250EB
:101050000F12435010128178512A0F0E516456D747
:10106000516A70D801D090D8412EFDD70D5042164C
:101070000E504316435042104FE0506A515051D821
:101080001126000E122251504CD8436E4950435C39
:1010900003E2515046D8496E515043D84A6003D0BC
:1010A00051503FD84A6E502A090E5064E7D74A5033
:1010B00049C041F0426A411E421E414A422A415EF5
:1010C000000E425A1150412612504222D89042320C
:1010D0004132D89042324132D8904232413241506E
:1010E000136E51500001E40FD96EDA6A5150D00FDF
:1010F000E16EE26AE750480DF3CF39F0F4CF3AF0F1
:1011000013C03BF03C6AE9EC10F03950DF6E116A15
:10111000126A49684A6A8178512A0F0E5164A1D730
:101120000F0C0A0D000E416E010E426EF350412667
:10113000000E422250504124D96E000E4220DA6E39
:10114000DF50120051C041F0010E426E436A412A45
:101150001200D96EDA6ADF50416E110E415C120046
:101160004B6A4C6A010E4D6E4E6A51501200010ED0
:101170004B6E4C6A4D6A4E6A51501200D8904136FF
:101180004236433644361200D89042364336120077
:10119000D96EDA6ADF50F00F12004F6E4F504BC01D
:1011A00041F04CC042F04DC043F04EC044F0E82A3C
:1011B0001200E8CF40F077A039D07790609E405081
:1011C000D96EDA6A61CFDFFF4050D96EDA6AD92A68
:1011D000DA6A62CFDFFFD3D863CFDFFFD7D864CF1F
:1011E000DFFF3F50D96EDA6A65CFDFFF3E50D96E20
:1011F000DA6A66CFDFFF3E50D96EDA6AD92ADA6A38
:1012000067CFDFFF92D868CFDFFF96D869CFDFFFC7
:10121000A1D86ACFDFFF97D86BCFDFFFA2D86CCF02
:10122000DFFFA6D86DCFDFFFD880120077A239D0BC
:1012300077920F01309F4050D96EDA6A31CFDFFFCD
:101240004050D96EDA6AD92ADA6A32CFDFFF97D8EE
:1012500033CFDFFF9BD834CFDFFF3F50D96EDA6A40
:1012600035CFDFFF3E50D96EDA6A36CFDFFF3E5012
:10127000D96EDA6AD92ADA6A37CFDFFF56D838CF83
:10128000DFFF5AD839CFDFFF65D83ACFDFFF5BD811
:101290003BCFDFFF66D83CCFDFFF6AD83DCFDFFF13
:1012A000C3D777B4779477B6779677B8779877AAD5
:1012B00033D0779A4050D96EDA6ADF6A4050D96EDF
:1012C000DA6AD92ADA6ADF6A5AD8DF6A5FD8DF6A4F
:1012D0003F50D96EDA6ADF6A3E50D96EDA6ADF6A49
:1012E0003E50D96EDA6AD92ADA6ADF6A3E50D96E80
:1012F000DA6A020E13D8030E11D8040E0FD8050EA9
:101300000DD8060E0BD8070ED926DA6ADF6A050E4D
:10131000EEEC13F0DAEC12F0D8901200D926DA6A6B
:10132000DF6A3E50D96EDA6A12003E50D96EDA6A30
:10133000020ED926DA6A12003E50D96EDA6A030E1E
:10134000D926DA6A12003E50D96EDA6A050ED9261D
:10135000DA6A12003E50D96EDA6A040ED926DA6AC9
:1013600012003E50D96EDA6A060ED926DA6A1200E9
:101370003E50D96EDA6A070ED926DA6A120040505A
:10138000D96EDA6A020ED926DA6A12004050D96E96
:10139000DA6A030ED926DA6A1200E8CF55F0E05176
:1013A000090A0EE1E151610AD8B4120009D0146AA9
:1013B00022D0010E03D0020E01D0030E146E1BD0FA
:1013C0005350D96EDA6ADF50F46F060EF56FD8907D
:1013D000F433F52FFCD7030EF417F4C0F6F0F76BD7
:1013E000F751E5E1F651E3E0010AE3E0030AE3E047
:1013F000010AE3E0DCD75350D96EDA6AFF0EDF62F0
:1014000002D025EC11F05550D96EDA6AD92ADA6A81
:10141000DF500001F46F050EF56FD890F433F52F0F
:10142000FCD7F451030B030AD8B412001450020A7B
:1014300043E176EC14F040D01404D8A41200000E5E
:10144000D0EF13F0145016EF15F0A8EF14F065EF7D
:1014500015F052EF15F078EF15F03FEF15F001EFB2
:1014600015F0D7EF14F00AEF14F040EF14F05BEF33
:1014700014F070EF13F0145018EF0FF01450E8EF61
:101480000DF01450AEEF12F0145056EF12F014504D
:101490004EEF0DF0145062EF0BF014502AEF12F0E3
:1014A000145082EF12F0ECEF14F04DEF13F025EF33
:1014B00014F01450C0EF14F05350D96EDA6ADF50B4
:1014C0000001F46F3F0EF417F4C0F5F0F66BF6511F
:1014D000D8A41200F551B0E0010AB4E0030AB5E067
:1014E000010AB5E0070AB5E0010AB5E0030AB5E074
:1014F000010AB5E00F0AB5E0010AB5E0030AB5E05C
:10150000010AB5E0070AB5E0010AB5E0030AB6E052
:10151000010AB7E01F0AB8E0010AB9E0030ABAE01D
:10152000010ABBE0070ABCE0010ABDE0030ABDE016
:101530000F0ABDE0030ABDE0010AD8A4120098EF2B
:1015400011F0456A466A000156B004D09CEC15F0D3
:10155000D8901200476AA9D80F0E3D164750020DC9
:10156000F3CF3EF01DC03FF03E2A02D0D8903F326C
:101570003E2EFCD73F50010B100DF3503D24456E1D
:1015800094D83D3A0F0E3D163D164750020DF3CF4D
:101590003EF03E2A1DC03FF03E2A02D0D8903F3296
:1015A0003E2EFCD73F50010B100DF3503D24466EEC
:1015B000455071D801D080D8E82EFDD73DB00BD072
:1015C000465069D801D078D8E82EFDD73DB003D079
:1015D0004650456211D0010E446E4750190FD96E26
:1015E000DA6ADF681B0E186E180E396E58C03AF0B2
:1015F000280EB0EC0CF01BD0100E456004D045C096
:101600003DF019D803D045C03DF02DD80812100E7A
:10161000466004D046C03DF00ED803D046C03DF031
:1016200022D80812446A472A030E476494D74450CC
:101630008FE1D8801200010E3E6E3F6A3D2A03D032
:10164000D8903E363F363D2EFBD73E50406E3F5041
:10165000416E426A436A40500512415006124250A0
:10166000071243501200F00E3D263E6A3F6A010EFB
:10167000406E416A3D2A05D0D8903E363F3640360E
:1016800041363D2EF9D73E5005123F5006124050CC
:1016900007124150120005C03DF006C03EF007C0E1
:1016A0003FF008C040F0E82A12004750190FD96EE9
:1016B000DA6ADF503D6E1200D89040323F323E323F
:1016C0003D321200E8CF4DF0A1EC0AF0D8A0120094
:1016D000316A2D0E306E040E596E590E396E190E88
:1016E0003A6E000E58EC0EF0ADEC10F019C0CCF0D4
:1016F0001AC0CDF01BC0CEF01CC0CFF02F6A1D5019
:10170000496E486A48C04EF049C04FF0000E4FBEC7
:10171000FF0E506E516E100ED8904E364F3650362A
:101720005136E82EF9D74E502C264F502D225050CE
:101730002E2251502F22316A310E306E040E596E16
:10174000590E396E2C0E3A6E000E58EC0EF0ADECC0
:1017500010F04D0423E1120E206E060E576ECCC021
:1017600021F0CDC022F0CEC023F0CFC024F0486AD3
:10177000496A4A6A2F504B6E190E05D0D8904B32E9
:101780004A3249324832E82EF9D74850256E200EA9
:10179000396E57C03AF0280EB0EC0CF00C0E526EB9
:1017A00052500001600F2ED80F0E48165250020DF5
:1017B000F35010D85250700F25D8483A0F0E4816E3
:1017C00048165250020DF32805D8522A0F0E5264C3
:1017D000E7D70F0C2CC049F02DC04AF02EC04BF0BB
:1017E0002FC04CF0E82A05D0D8904C324B324A3208
:1017F0004932E82EF9D74950010B100DF350482417
:10180000DF6E1200D96EDA6A5250C00FE16EE26AE2
:10181000E750486E1200A4C0A8F0A5C0A9F0A6C069
:10182000AAF0A7C0ABF0A0C0A4F0A1C0A5F0A2C0D0
:10183000A6F0A3C0A7F081EC0EF039C0A0F03AC02A
:10184000A1F03BC0A2F03CC0A3F00001A351A71936
:1018500008E1A251A61905E1A151A51902E1A05183
:10186000A419D8A41200AB51A71908E1AA51A619CE
:1018700005E1A951A51902E1A851A419D8A41200A3
:1018800032A00CD0A8C0A0F15FD8A0C109F0A1C1BE
:101890000AF0A2C10BF0A3C10CF0120056A218D09E
:1018A00056922AD8096EA151A9150A6EA251AA15FD
:1018B0000B6EA351AB150C6EA8C0A0F145D8A0C10A
:1018C00001F0A1C102F0A2C103F0A3C104F0120013
:1018D00013D8AC6FA151A915AD6FA251AA15AE6F67
:1018E000A351AB15AF6FAC510912AD510A12AE51F5
:1018F0000B12AF510C12E0D701C0A0F102C0A1F150
:1019000003C0A2F104C0A3F10101A01FA11FA21FE7
:10191000A31FA8C0A4F1A9C0A5F1AAC0A6F1ABC09D
:10192000A7F1A41FA51FA61FA71F0150A419A86FE8
:101930000250A519A96F0350A619AA6F0450A71940
:10194000AB6FA051A8151200A9C0A1F1AAC0A2F1C5
:10195000ABC0A3F10101A01FA11FA21FA31F120072
:101960003B6A3C6A0F0120BF1DD03AC025FF3950A9
:10197000D96EDA6ADF50266F8AD8276F51D8286F60
:1019800057D8296F65D82A6F5BD82B6F69D82C6F11
:101990006FD82D6F208703D073D8D8B0120020A73E
:1019A0001200FAD710BF1DD03AC015FF3950D96EBA
:1019B000DA6ADF50166F6BD8176F32D8186F38D8C5
:1019C000196F46D81A6F3CD81B6F4AD81C6F50D875
:1019D0001D6F208703D054D8D8B0120020A7120062
:1019E000FAD700BF12003AC005FF3950D96EDA6A43
:1019F000DF50066F4CD8076F13D8086F19D8096FDE
:101A000027D80A6F1DD80B6F2BD80C6F31D80D6FEC
:101A1000008703D035D8D8B0120000A71200FAD73B
:101A20003950D96EDA6A020ED926DA6ADF5012000E
:101A30003950D96EDA6A030ED926DA6ADF501200FD
:101A40003950D96EDA6A050ED926DA6ADF501200EB
:101A50003950D96EDA6A040ED926DA6ADF501200DC
:101A60003950D96EDA6A060ED926DA6ADF501200CA
:101A70003950D96EDA6A070ED926DA6ADF501200B9
:101A80003B4A3C2AE80E3B5C030E3C58120039509E
:101A9000D96EDA6AD92ADA6ADF501200E8CF51F03B
:101AA000A1EC0AF0D8A01200316A290E306E040EA3
:101AB000596E590E396E190E3A6E000E58EC0EF032
:101AC000ADEC10F019C0C8F01AC0C9F01BC0CAF0C4
:101AD0001CC0CBF02E6A1D50496E486A48C04DF0BC
:101AE00049C04EF0000E4EBEFF0E4F6E506E4DC000
:101AF00049F04EC04AF04FC04BF0486A48502C267F
:101B000049502D224A502E224B502F22316A310E3D
:101B1000306E040E596E590E396E2C0E3A6E000E50
:101B200058EC0EF0ADEC10F0510415E1110E206EE2
:101B3000060E576EC8C021F0C9C022F0CAC023F0FB
:101B4000CBC024F02EC025F0200E396E57C03AF0DD
:101B5000280EB0EC0CF0080E526E52500001600FCF
:101B60002ED80F0E48165250020DF35010D8525076
:101B7000700F25D8483A0F0E481648165250020DDD
:101B8000F32805D8522A0B0E5264E7D70B0C2CC051
:101B900049F02DC04AF02EC04BF02FC04CF0E82A7F
:101BA00005D0D8904C324B324A324932E82EF9D720
:101BB0004950010B100DF3504824DF6E1200D96E0E
:101BC000DA6A5250C00FE16EE26AE750486E1200C6
:101BD000E8CF4EF0A1EC0AF0D8A01200316A250E31
:101BE000306E040E596E590E396E190E3A6E000E93
:101BF0005FD8ADEC10F019C0C4F01AC0C5F01BC01E
:101C0000C6F01CC0C7F02D6A1D50496E486A48C016
:101C10004AF049C04BF0000E4BBEFF0E4C6E4D6EAD
:101C20004A502C264B502D224C502E224D502F2204
:101C3000316A310E306E040E596E590E396E2C0E0B
:101C40003A6E000E35D8ADEC10F04E0415E10E0ED4
:101C5000206E060E576EC4C021F0C5C022F0C6C06B
:101C600023F0C7C024F02DC025F0200E396E57C0D8
:101C70003AF0280EB0EC0CF0040E4F6E4F500001FD
:101C8000600F36D80F0E48164F50020DF35018D87B
:101C90004F50700F2DD8483A0F0E481648164F5027
:101CA000020DF3280DD84F2A070E4F64E7D7070C13
:101CB0003B6E0F0E3B6E5F0E3A643B6A300E1200B5
:101CC0002CC049F02DC04AF02EC04BF02FC04CF074
:101CD000E82A05D0D8904C324B324A324932E82EAD
:101CE000F9D74950010B100DF3504824DF6E120054
:101CF000D96EDA6A4F50C00FE16EE26AE750486E63
:101D00001200416A426A436A446A456A466A476AFF
:101D1000486A4A6AF00E8312F10E80164A504A242D
:101D200080120F0E831683500F0B496E49A00DD001
:101D30004AC03DF0010E3E6E3D2A02D0D8903E369C
:101D40003D2EFCD73E50411202D056D8411649A232
:101D50000DD04AC03DF0010E3E6E3D2A02D0D89013
:101D60003E363D2EFCD73E50421202D045D8421698
:101D700049A40DD04AC03DF0010E3E6E3D2A02D06E
:101D8000D8903E363D2EFCD73E50431202D034D878
:101D9000431649A60DD04AC03DF0010E3E6E3D2AC5
:101DA00002D0D8903E363D2EFCD73E50441202D091
:101DB00023D844164A2A070E4A64ACD7435044C07D
:101DC0003DF03E6A3DC03EF03D6A3D12000E3DC012
:101DD00045F03EC046F046BEFF0E476E486E42508C
:101DE00017D8415015D845C039F046C03AF047C021
:101DF0003BF048C03CF012004AC03DF0010E3E6E80
:101E00003D2A02D0D8903E363D2EFCD73E1C120013
:101E100045C03EF046C03FF047C040F03D6A3D102F
:101E2000456E3E50466E3F50476E4050486E120021
:101E3000E8CF4DF0A1EC0AF0D8A01200316A210ED3
:101E4000306E040E596E590E396E190E3A6E000E30
:101E500058EC0EF0ADEC10F019C0C0F01AC0C1F093
:101E60001BC0C2F01CC0C3F02C6A1D502C26000EF3
:101E70002D222E222F22316A310E306E040E596E21
:101E8000590E396E2C0E3A6E000E58EC0EF0ADEC79
:101E900010F04D0415E10D0E206E060E576EC0C0F9
:101EA00021F0C1C022F0C2C023F0C3C024F02CC076
:101EB00025F0200E396E57C03AF0280EB0EC0CF029
:101EC0004E6A4E500001600F2ED80F0E48164E502D
:101ED000020DF35010D84E50700F25D8483A0F0E0F
:101EE000481648164E50020DF32805D84E2A030E08
:101EF0004E64E7D7030C2CC049F02DC04AF02EC029
:101F00004BF02FC04CF0E82A05D0D8904C324B3221
:101F10004A324932E82EF9D74950010B100DF350DF
:101F20004824DF6E1200D96EDA6A4E50C00FE16E9F
:101F3000E26AE750486E1200316A210E69D8000E3D
:101F40003B6EC00E3A6E300EFCEC11F0316A310E71
:101F5000306E040E596E590E396E2C0E3A6E000E0C
:101F600083EC13F0FCEC11F0316A350E51D8000E01
:101F70003B6ED00E3A6E300EFCEC11F0316A450E1D
:101F8000306E010E596E590E396E320E3A6E000ED9
:101F900083EC13F0FCEC11F0446A44500001600F34
:101FA0002ED80F0E3F164450020DF35010D8445057
:101FB000700F25D83F3A0F0E3F163F164450020DC2
:101FC000F32805D8442A0F0E4464E7D70F0C2CC021
:101FD00040F02DC041F02EC042F02FC043F0E82A5F
:101FE00005D0D8904332423241324032E82EF9D700
:101FF0004050010B100DF3503F24DF6E1200D96EDC
:10200000DA6A4450C00FE16EE26AE7503F6E120098
:10201000306E100E596E590E396E00011200E8CF65
:102020003AF00E01E06B3938E846E00B0809E06F42
:10203000E16B3A380F0B0809E16FE26B3A38F00BAD
:102040000F09E26FE36BE369E0CEE4FEE1CEE5FE6B
:10205000E2CEE6FEE3CEE7FE680EE86F6A0EE96FB9
:102060000F0EEA6FEB69E0CEECFEE1CEEDFEE2CEC4
:10207000EEFEE3CEEFFE680EF06F6A0EF16F0F0E0C
:10208000F26FF369E0CEE8FEE1CEE9FEE2CEEAFED1
:10209000E3CEEBFEE0CEF4FEE1CEF5FEE2CEF6FEC0
:1020A000E3CEF7FE1F0EF86F830EF96FF00EFA6F96
:1020B000FB6B1F0EFC6FE30EFD6FF00EFE6FFF6BF0
:1020C00012000001F86BD190010E3E6EF40E3D6ED1
:1020D0008AEC15F0BDEC15F080902BEC15F0D2ECED
:1020E00015F0050EEEEC13F0DAEC12F09CEC0FF0AC
:1020F000D1808080180E3E6E580E3F6E0001E00EBB
:10210000D9EC08F00AE38090180E536E58C054F0D2
:102110000001E00ECDEC09F0808004000BEC0CF027
:10212000000156A405D090EC14F032A056825694CB
:10213000000156A6DFD783EC07F000015696172A58
:10214000630E1764D7D7EBEC15F0176A0001F82B74
:10215000070EF865CFD7F86BCDD7E8CF3EF03F0E2E
:10216000F2162DD03E50D96EDA6ADECF3CF0DDCFCC
:102170003DF03DC03CF03D6A3C50756E3E50D96E1E
:10218000DA6ADF50746E3E50D96EDA6ADE2A000ECB
:10219000DD223AC0D9FF3BC0DAFFDF50736E3A4A06
:1021A0003B2A3F0E7F167F84550E7E6EAA0E7E6EF2
:1021B0007F8200F07FB2FED700F0040E7F16395008
:1021C000D96EDA6ADF06FF0EDF62CCD7C00EF212DC
:1021D000C00C3E6A3CAE06D03B6C3C1ED8B03C2ADC
:1021E000010E3E6E3AAE06D0396C3A1ED8B03A2A8D
:1021F000010E3E1A3F6A406A3C503B101BE0010E44
:102200003D6E04D0D8903B363C363D2A3CAEFAD7E2
:10221000D8903F3640363B50395C3C503A5805E345
:102220003B50395E3C503A5A3F80D8903C323B326A
:102230003D2EEED73E5004E03F6C401ED8B0402A01
:102240003FC039F040C03AF01200060E576E2068C9
:10225000000EF66E0F0EF76E0800F5CF21F0000E9F
:102260003D6E3D2A3DC0F6FF0F0EF76E0800F5CF1C
:1022700022F0000E3D6E020E3D263DC0F6FF0F0E11
:10228000F76E0800F5CF23F0000E3D6E030E3D26DD
:102290003DC0F6FF0F0EF76E0800F5CF24F0000EDC
:1022A0003D6E040E3D263DC0F6FF0F0EF76E080092
:1022B000F5CF25F0200E396E57C03AF0280EB0EF5A
:1022C0000CF001EE00F0A00EEE6AE806FDE100EE73
:1022D00060F0840EEE6AE806FDE1566A00EE01F059
:1022E000320EEE6AE806FDE1B80EF66E2B0EF76EC2
:1022F000000EF86E00EEE4F010EE10F00900F5CFDD
:10230000EEFFE550E150FAE1DA0EF66E2B0EF76EB5
:10231000000EF86E0900F5CF57F00900F5CF58F020
:102320000900F5CF59F0000EF86E000161EF10F0D2
:10233000196631D0316A210E306E100E596E3F6A27
:102340003F50C00FD96EDA6ADF6A3F2A0F0E3F6432
:10235000F7D7590E396E000E3B6EC00E3A6E300E36
:10236000ADEC10F02C6A2D6A2E6A2F6A316A310E9C
:10237000306E040E596E590E396E2CC03AF02DC0D5
:102380003BF0300EADEC10F0056A066A076A086A89
:102390000001568012000001569012003A6A3B6A12
:1023A0008138E842070B396E3A6A3B6A3A4A3B2A5F
:1023B000E80E3A5C030E3B58F9E38138E842070B1C
:1023C000391809E0FF0C130C140C150C160C170C23
:1023D000180C1A0C1B0C3950F6E0010AF5E0030A40
:1023E000F4E0010AF3E0070AF2E0010AF1E0030A6F
:1023F000F0E0010AEFE0000CE8CF3EF03E50D96E6D
:10240000DA6ADECF3CF0DDCF3DF03DC03CF03D6A06
:102410003C50756E3E50D96EDA6ADF50746E3E5095
:10242000D96EDA6ADE2A000EDD22736A3F0E7F164D
:102430007F8000F03AC0D9FF3BC0DAFF73CFDFFFE7
:102440003A4A3B2A3950D96EDA6ADF06FF0EDF625C
:10245000D5D7FF0CE8CF3FF06FEC14F0396E190EB2
:102460003A6E000E58EC0EF0ADEC10F019C0D8F03A
:102470001AC0D9F01BC0DAF01CC0DBF03F04D8A4AE
:102480001200130E206E050E576E6FEC14F0396EAD
:10249000210E3A6E000E83EC13F0FCEC11F0200ECE
:1024A000396E57C03AF0280EB0EF0CF0E8CF3FF08D
:1024B00054EC14F0396E190E3A6E000E58EC0EF012
:1024C000ADEC10F019C0D4F01AC0D5F01BC0D6F096
:1024D0001CC0D7F03F04D8A41200100E206E050EC9
:1024E000576E54EC14F0396E210E3A6E000E83ECE8
:1024F00013F0FCEC11F0200E396E57C03AF0280EA4
:10250000B0EF0CF0E8CF3FF08BEC13F0396E190E02
:102510003A6E000E58EC0EF0ADEC10F019C0DCF085
:102520001AC0DDF01BC0DEF01CC0DFF03F04D8A4F1
:102530001200140E206E050E576E8BEC13F0396EE0
:10254000210E3A6E000E83EC13F0FCEC11F0200E1D
:10255000396E57C03AF0280EB0EF0CF0E8CF3FF0DC
:102560001EEC14F0396E190E3A6E000E58EC0EF097
:10257000ADEC10F019C0D0F01AC0D1F01BC0D2F0F1
:102580001CC0D3F03F04D8A412000F0E206E050E1D
:10259000576E1EEC14F0396E210E3A6E000E83EC6D
:1025A00013F0FCEC11F0200E396E57C03AF0280EF3
:1025B000B0EF0CF0E8CF3CF0938693946F8E6EAE44
:1025C000FED73F0E72160E01436BD10E446FC10E43
:1025D000456F210E706E060E60120F013013030E50
:1025E000396E3C5001EC13F0030E396E3C500FEC89
:1025F00010F0EFEC15F0706A1F0E6F166EA012004F
:10260000FDD7E8CF3BF0216B3BC03AF0D8903A328F
:102610003938E846E00B3A10216F226B3B40800BC3
:102620000909226F236B0F0E236F246B246921CFBE
:1026300011FF22CF12FF23CF13FF24CF14FF21CF8E
:1026400001FF22CF02FF23CF03FF24CF04FF12009C
:10265000D80ED76EEF0ED66E00015686366A36C09B
:1026600033F0010E346E356A332A03D0D8903436F5
:102670003536332EFBD70F503416105035163550E3
:10268000341006E036500001800FD96EDA6ADF2A76
:10269000362A0F0E3664E3D70F0C160E206E060E88
:1026A000576ECCC021F0CDC022F0CEC023F0CFC0F9
:1026B00024F03D6A3E6A3F6A2F50406E190E05D0E5
:1026C000D89040323F323E323D32E82EF9D73D506D
:1026D000256E200E396E57C03AF0280EB0EF0CF080
:1026E0000C0E206E050E576E16D8396E210E3A6EFE
:1026F000000E09D8FCEC11F0200E396E57C03AF0EC
:10270000280EB0EF0CF03B6E0F0E3B6E5F0E3A647E
:102710003B6A300E1200316A410E306E040E596E63
:10272000590E12009EAA120015500001AC0FD96E6E
:10273000DA6AAECFDFFF152A9E9A040E156010D01C
:10274000AC51AA0A0DE1020E1564020CAD51550AF6
:1027500007E1AE51020A04E100015684156A120035
:10276000156A12003A6A3B6A8150030B396E3A6A65
:102770003B6A3A4A3B2AE80E3A5C030E3B58F9E3BF
:102780008150030B391803E0FF0C290C2A0C395037
:10279000FCE0010AFBE0030AF9E0010AF6E0000CA4
:1027A000E8CF3FF0050E576E3F6602D0206A02D098
:1027B000010E206E306A316A040E596E590E396E60
:1027C000210E3A6E000E83EC13F0FCEC11F0200E9B
:1027D000396E57C03AF0280EB0EF0CF0E8CF3CF05D
:1027E0000BD0200E05D0CEEC11F002D0B2EC13F0DD
:1027F0003D6E0ED03D6A0CD03C50010AF2E0030A57
:10280000F2E0010A05E0070A03E0010AEFE0F2D76F
:102810003D501200090E206E050E576E0FD8396E0E
:10282000210E3A6E000E83EC13F0FCEC11F0200E3A
:10283000396E57C03AF0280EB0EF0CF0316A350E01
:10284000306E040E596E590E12001A0E206E020ED2
:10285000576E316A450E306E010E596E590E396E43
:10286000320E3A6E000E83EC13F0FCEC11F032C025
:1028700021F0200E396E57C03AF0280EB0EF0CF060
:102880000A0E206E050E576E0FD8396E210E3A6E65
:10289000000E83EC13F0FCEC11F0200E396E57C0E3
:1028A0003AF0280EB0EF0CF0316A390E306E040E9B
:1028B000596E590E12000B0E206E050E576E0FD872
:1028C000396E210E3A6E000E83EC13F0FCEC11F021
:1028D000200E396E57C03AF0280EB0EF0CF0316A76
:1028E0003D0E306E040E596E590E12003D6A3D5079
:1028F000180FD96EDA6A3D50200FE16EE26ADFCF21
:10290000E7FF3D2A070E3D64F2D73F0E201658C060
:1029100057F0200E396E57C03AF0280EB0EF0CF089
:10292000020EE4EC15F009C03AF00AC03BF00BC00F
:102930003CF00CC03DF03E6A3E503A0FD96EDA6A68
:10294000DF50E4EC15F03E2A030E3E64F5D7030C8D
:10295000020E206E050E576E09C021F00AC022F04B
:102960000BC023F00CC024F0200E396E57C03AF093
:10297000280EB0EC0CF032B01200000156821200AA
:10298000E8CF3FF0316A450E306E010E596E590E98
:10299000396E190E3A6E000E58EC0EF0ADEC10F0D8
:1029A00019C032F03F04D8B425EC14F01200080E20
:1029B000206E060E576EC4C021F0C5C022F0C6C0FE
:1029C00023F0C7C024F02DC025F0200E396E57C06B
:1029D0003AF0280EB0EF0CF0150E206E060E576E72
:1029E000C8C021F0C9C022F0CAC023F0CBC024F077
:1029F0002EC025F0200E396E57C03AF0280EB0EFE9
:102A00000CF0070E206E060E576EC0C021F0C1C03C
:102A100022F0C2C023F0C3C024F02CC025F0200E49
:102A2000396E57C03AF0280EB0EF0CF0E8CF40F006
:102A3000306A316A040E596E590E396E190E3A6EAB
:102A4000000E58EC0EF0ADEC10F04004D8A41200CB
:102A5000010ED0EF13F0C00EF212F28AF294D59C60
:102A6000D59AD80ED76EEF0ED66ED58E9D809E90DD
:102A7000CD6AD80ECF6EEF0ECE6ECD80EF0C060E67
:102A8000206E050E576EF0C021F0F1C022F0F2C0AA
:102A900023F0F3C024F0200E396E57C03AF0280E10
:102AA000B0EF0CF0040E206E050E576EE8C021F05A
:102AB000E9C022F0EAC023F0EBC024F0200E396E0A
:102AC00057C03AF0280EB0EF0CF0030E206E050E42
:102AD000576EE4C021F0E5C022F0E6C023F0E7C065
:102AE00024F0200E396E57C03AF0280EB0EF0CF0EB
:102AF000050E206E576EECC021F0EDC022F0EEC046
:102B000023F0EFC024F0200E396E57C03AF0280EA3
:102B1000B0EF0CF03F6A406A08D0030E3A6EE50E43
:102B2000396EADEC15F03F4A402A3D503F5C3E50B7
:102B30004058D8B01200F1D7080E576E20682168AF
:102B4000226823682468256826682768200E396E65
:102B500057C03AF0280EB0EF0CF0FB0E3926FF0EEE
:102B60003A223B6A3C6A02D03B4A3C2A39503B5CE1
:102B70003A503C58D8B01200F7D70F015C6B5D6B30
:102B8000F296F00E921693980F0E9412956E0F0C0B
:102B9000B10ECF6EDF0ECE6E162A130E1664130C16
:102BA000166A12000C0EAF6EAC8AA796A70EAC1672
:102BB000900EAB129D8A900C141414141414141457
:102BC0001414141414141414E8CF39F09EA8FED76A
:102BD00039C0ADFF12008250120008080400120034
:020000040030CA
:020000001503E6
:020003002200D9
:02000B00E00013
:00000001FF
